{
  "_format": "hh-sol-artifact-1",
  "contractName": "TaskPlatform",
  "sourceName": "contracts/TaskPlatform.sol",
  "abi": [
    {
      "inputs": [],
      "stateMutability": "nonpayable",
      "type": "constructor"
    },
    {
      "anonymous": false,
      "inputs": [
        {
          "indexed": true,
          "internalType": "uint256",
          "name": "taskId",
          "type": "uint256"
        },
        {
          "indexed": true,
          "internalType": "address",
          "name": "assignee",
          "type": "address"
        }
      ],
      "name": "TaskAssigned",
      "type": "event"
    },
    {
      "anonymous": false,
      "inputs": [
        {
          "indexed": true,
          "internalType": "uint256",
          "name": "taskId",
          "type": "uint256"
        }
      ],
      "name": "TaskCompleted",
      "type": "event"
    },
    {
      "anonymous": false,
      "inputs": [
        {
          "indexed": true,
          "internalType": "uint256",
          "name": "taskId",
          "type": "uint256"
        },
        {
          "indexed": true,
          "internalType": "address",
          "name": "creator",
          "type": "address"
        },
        {
          "indexed": false,
          "internalType": "string",
          "name": "title",
          "type": "string"
        },
        {
          "indexed": false,
          "internalType": "uint256",
          "name": "reward",
          "type": "uint256"
        }
      ],
      "name": "TaskCreated",
      "type": "event"
    },
    {
      "anonymous": false,
      "inputs": [
        {
          "indexed": true,
          "internalType": "uint256",
          "name": "taskId",
          "type": "uint256"
        },
        {
          "indexed": true,
          "internalType": "address",
          "name": "assignee",
          "type": "address"
        },
        {
          "indexed": false,
          "internalType": "uint256",
          "name": "reward",
          "type": "uint256"
        }
      ],
      "name": "TaskPaid",
      "type": "event"
    },
    {
      "inputs": [
        {
          "internalType": "uint256",
          "name": "taskId",
          "type": "uint256"
        }
      ],
      "name": "assignTask",
      "outputs": [],
      "stateMutability": "nonpayable",
      "type": "function"
    },
    {
      "inputs": [
        {
          "internalType": "uint256",
          "name": "taskId",
          "type": "uint256"
        }
      ],
      "name": "completeTask",
      "outputs": [],
      "stateMutability": "nonpayable",
      "type": "function"
    },
    {
      "inputs": [
        {
          "internalType": "string",
          "name": "title",
          "type": "string"
        },
        {
          "internalType": "string",
          "name": "description",
          "type": "string"
        }
      ],
      "name": "createTask",
      "outputs": [],
      "stateMutability": "payable",
      "type": "function"
    },
    {
      "inputs": [],
      "name": "getAllTasks",
      "outputs": [
        {
          "components": [
            {
              "internalType": "uint256",
              "name": "id",
              "type": "uint256"
            },
            {
              "internalType": "address",
              "name": "creator",
              "type": "address"
            },
            {
              "internalType": "address",
              "name": "assignee",
              "type": "address"
            },
            {
              "internalType": "string",
              "name": "title",
              "type": "string"
            },
            {
              "internalType": "string",
              "name": "description",
              "type": "string"
            },
            {
              "internalType": "uint256",
              "name": "reward",
              "type": "uint256"
            },
            {
              "internalType": "bool",
              "name": "isCompleted",
              "type": "bool"
            },
            {
              "internalType": "bool",
              "name": "isPaid",
              "type": "bool"
            }
          ],
          "internalType": "struct TaskPlatform.Task[]",
          "name": "",
          "type": "tuple[]"
        }
      ],
      "stateMutability": "view",
      "type": "function"
    },
    {
      "inputs": [
        {
          "internalType": "uint256",
          "name": "taskId",
          "type": "uint256"
        }
      ],
      "name": "getTask",
      "outputs": [
        {
          "components": [
            {
              "internalType": "uint256",
              "name": "id",
              "type": "uint256"
            },
            {
              "internalType": "address",
              "name": "creator",
              "type": "address"
            },
            {
              "internalType": "address",
              "name": "assignee",
              "type": "address"
            },
            {
              "internalType": "string",
              "name": "title",
              "type": "string"
            },
            {
              "internalType": "string",
              "name": "description",
              "type": "string"
            },
            {
              "internalType": "uint256",
              "name": "reward",
              "type": "uint256"
            },
            {
              "internalType": "bool",
              "name": "isCompleted",
              "type": "bool"
            },
            {
              "internalType": "bool",
              "name": "isPaid",
              "type": "bool"
            }
          ],
          "internalType": "struct TaskPlatform.Task",
          "name": "",
          "type": "tuple"
        }
      ],
      "stateMutability": "view",
      "type": "function"
    },
    {
      "inputs": [],
      "name": "owner",
      "outputs": [
        {
          "internalType": "address",
          "name": "",
          "type": "address"
        }
      ],
      "stateMutability": "view",
      "type": "function"
    },
    {
      "inputs": [
        {
          "internalType": "uint256",
          "name": "taskId",
          "type": "uint256"
        }
      ],
      "name": "payTask",
      "outputs": [],
      "stateMutability": "nonpayable",
      "type": "function"
    },
    {
      "inputs": [],
      "name": "taskCount",
      "outputs": [
        {
          "internalType": "uint256",
          "name": "",
          "type": "uint256"
        }
      ],
      "stateMutability": "view",
      "type": "function"
    },
    {
      "inputs": [
        {
          "internalType": "uint256",
          "name": "",
          "type": "uint256"
        }
      ],
      "name": "tasks",
      "outputs": [
        {
          "internalType": "uint256",
          "name": "id",
          "type": "uint256"
        },
        {
          "internalType": "address",
          "name": "creator",
          "type": "address"
        },
        {
          "internalType": "address",
          "name": "assignee",
          "type": "address"
        },
        {
          "internalType": "string",
          "name": "title",
          "type": "string"
        },
        {
          "internalType": "string",
          "name": "description",
          "type": "string"
        },
        {
          "internalType": "uint256",
          "name": "reward",
          "type": "uint256"
        },
        {
          "internalType": "bool",
          "name": "isCompleted",
          "type": "bool"
        },
        {
          "internalType": "bool",
          "name": "isPaid",
          "type": "bool"
        }
      ],
      "stateMutability": "view",
      "type": "function"
    }
  ],
  "bytecode": "0x608060405234801561001057600080fd5b50600280546001600160a01b03191633179055611209806100326000396000f3fe6080604052600436106100865760003560e01c80638d977672116100595780638d977672146101185780638da5cb5b1461014c578063b6cb58a514610184578063b8573185146101a8578063e1e29558146101c857600080fd5b80631d65e77e1461008b5780632508402c146100c1578063292a4585146100e3578063779900b4146100f6575b600080fd5b34801561009757600080fd5b506100ab6100a6366004610d28565b6101e8565b6040516100b89190610e17565b60405180910390f35b3480156100cd57600080fd5b506100e16100dc366004610d28565b6103f1565b005b6100e16100f1366004610ed4565b610629565b34801561010257600080fd5b5061010b61075d565b6040516100b89190610f38565b34801561012457600080fd5b50610138610133366004610d28565b6109cb565b6040516100b8989796959493929190610f9a565b34801561015857600080fd5b5060025461016c906001600160a01b031681565b6040516001600160a01b0390911681526020016100b8565b34801561019057600080fd5b5061019a60015481565b6040519081526020016100b8565b3480156101b457600080fd5b506100e16101c3366004610d28565b610b31565b3480156101d457600080fd5b506100e16101e3366004610d28565b610c04565b60408051610100810182526000808252602082018190529181018290526060808201819052608082015260a0810182905260c0810182905260e081019190915260015482106102525760405162461bcd60e51b815260040161024990611004565b60405180910390fd5b600082815260208181526040918290208251610100810184528154815260018201546001600160a01b03908116938201939093526002820154909216928201929092526003820180549192916060840191906102ad90611031565b80601f01602080910402602001604051908101604052809291908181526020018280546102d990611031565b80156103265780601f106102fb57610100808354040283529160200191610326565b820191906000526020600020905b81548152906001019060200180831161030957829003601f168201915b5050505050815260200160048201805461033f90611031565b80601f016020809104026020016040519081016040528092919081815260200182805461036b90611031565b80156103b85780601f1061038d576101008083540402835291602001916103b8565b820191906000526020600020905b81548152906001019060200180831161039b57829003601f168201915b50505091835250506005820154602082015260069091015460ff8082161515604084015261010090910416151560609091015292915050565b60015481106104125760405162461bcd60e51b815260040161024990611004565b60008181526020819052604090206006015460ff166104685760405162461bcd60e51b815260206004820152601260248201527115185cdac81b9bdd0818dbdb5c1b195d195960721b6044820152606401610249565b600081815260208190526040902060060154610100900460ff16156104c35760405162461bcd60e51b815260206004820152601160248201527015185cdac8185b1c9958591e481c185a59607a1b6044820152606401610249565b6000818152602081905260409020600201546001600160a01b031661051e5760405162461bcd60e51b815260206004820152601160248201527015185cdac81b9bdd08185cdcda59db9959607a1b6044820152606401610249565b60008181526020819052604080822060068101805461ff0019166101001790556002810154600582015492519193926001600160a01b03909116918381818185875af1925050503d8060008114610591576040519150601f19603f3d011682016040523d82523d6000602084013e610596565b606091505b50509050806105d85760405162461bcd60e51b815260206004820152600e60248201526d14185e5b595b9d0819985a5b195960921b6044820152606401610249565b600282015460058301546040519081526001600160a01b039091169084907fa07faadda36641e27d06e326154d794c6c68f33a649da404fc368078c66d4beb906020015b60405180910390a3505050565b600180546000918261063a83611065565b9091555060408051610100810182528281523360208083019182526000838501818152606085018a8152608086018a90523460a087015260c0860183905260e08601839052878352928290529490208351815591516001830180546001600160a01b03199081166001600160a01b0393841617909155945160028401805490961691161790935591519293509160038201906106d690826110db565b50608082015160048201906106eb90826110db565b5060a0820151600582015560c08201516006909101805460e09093015115156101000261ff00199215159290921661ffff1990931692909217179055604051339082907f9e3c9757475c00b86393e183b68033bb76e48fa164849c7428ad17f62e1954a79061061c908790349061119b565b6060600060015467ffffffffffffffff81111561077c5761077c610e31565b6040519080825280602002602001820160405280156107ea57816020015b6040805161010081018252600080825260208083018290529282018190526060808301819052608083015260a0820181905260c0820181905260e0820152825260001990920191018161079a5790505b50905060005b6001548110156109c557600081815260208181526040918290208251610100810184528154815260018201546001600160a01b039081169382019390935260028201549092169282019290925260038201805491929160608401919061085590611031565b80601f016020809104026020016040519081016040528092919081815260200182805461088190611031565b80156108ce5780601f106108a3576101008083540402835291602001916108ce565b820191906000526020600020905b8154815290600101906020018083116108b157829003601f168201915b505050505081526020016004820180546108e790611031565b80601f016020809104026020016040519081016040528092919081815260200182805461091390611031565b80156109605780601f1061093557610100808354040283529160200191610960565b820191906000526020600020905b81548152906001019060200180831161094357829003601f168201915b50505091835250506005820154602082015260069091015460ff8082161515604084015261010090910416151560609091015282518390839081106109a7576109a76111bd565b602002602001018190525080806109bd90611065565b9150506107f0565b50919050565b600060208190529081526040902080546001820154600283015460038401805493946001600160a01b03938416949390921692610a0790611031565b80601f0160208091040260200160405190810160405280929190818152602001828054610a3390611031565b8015610a805780601f10610a5557610100808354040283529160200191610a80565b820191906000526020600020905b815481529060010190602001808311610a6357829003601f168201915b505050505090806004018054610a9590611031565b80601f0160208091040260200160405190810160405280929190818152602001828054610ac190611031565b8015610b0e5780601f10610ae357610100808354040283529160200191610b0e565b820191906000526020600020905b815481529060010190602001808311610af157829003601f168201915b50505050600583015460069093015491929160ff80821692506101009091041688565b6001548110610b525760405162461bcd60e51b815260040161024990611004565b6000818152602081905260409020600201546001600160a01b031615610bb25760405162461bcd60e51b815260206004820152601560248201527415185cdac8185b1c9958591e48185cdcda59db9959605a1b6044820152606401610249565b60008181526020819052604080822060020180546001600160a01b031916339081179091559051909183917f52476d55ecef5cf13caa64038f297fe6bbf865d9584a98b8722a15a6d5db128f9190a350565b6001548110610c255760405162461bcd60e51b815260040161024990611004565b6000818152602081905260409020600201546001600160a01b03163314610c875760405162461bcd60e51b81526020600482015260166024820152752737ba1030b9b9b4b3b732b2103a379039b2b73232b960511b6044820152606401610249565b60008181526020819052604090206006015460ff1615610ce25760405162461bcd60e51b815260206004820152601660248201527515185cdac8185b1c9958591e4818dbdb5c1b195d195960521b6044820152606401610249565b600081815260208190526040808220600601805460ff191660011790555182917fc1fa7142cfb933d0855114a3bffde296944c30b727f297c14d0db4d553d3a5c791a250565b600060208284031215610d3a57600080fd5b5035919050565b6000815180845260005b81811015610d6757602081850181015186830182015201610d4b565b506000602082860101526020601f19601f83011685010191505092915050565b600061010082518452602083015160018060a01b03808216602087015280604086015116604087015250506060830151816060860152610dc982860182610d41565b91505060808301518482036080860152610de38282610d41565b91505060a083015160a085015260c0830151151560c085015260e0830151610e0f60e086018215159052565b509392505050565b602081526000610e2a6020830184610d87565b9392505050565b634e487b7160e01b600052604160045260246000fd5b600082601f830112610e5857600080fd5b813567ffffffffffffffff80821115610e7357610e73610e31565b604051601f8301601f19908116603f01168101908282118183101715610e9b57610e9b610e31565b81604052838152866020858801011115610eb457600080fd5b836020870160208301376000602085830101528094505050505092915050565b60008060408385031215610ee757600080fd5b823567ffffffffffffffff80821115610eff57600080fd5b610f0b86838701610e47565b93506020850135915080821115610f2157600080fd5b50610f2e85828601610e47565b9150509250929050565b6000602080830181845280855180835260408601915060408160051b870101925083870160005b82811015610f8d57603f19888603018452610f7b858351610d87565b94509285019290850190600101610f5f565b5092979650505050505050565b8881526001600160a01b0388811660208301528716604082015261010060608201819052600090610fcd83820189610d41565b90508281036080840152610fe18188610d41565b60a0840196909652505091151560c0830152151560e09091015295945050505050565b60208082526013908201527215185cdac8191bd95cc81b9bdd08195e1a5cdd606a1b604082015260600190565b600181811c9082168061104557607f821691505b6020821081036109c557634e487b7160e01b600052602260045260246000fd5b60006001820161108557634e487b7160e01b600052601160045260246000fd5b5060010190565b601f8211156110d657600081815260208120601f850160051c810160208610156110b35750805b601f850160051c820191505b818110156110d2578281556001016110bf565b5050505b505050565b815167ffffffffffffffff8111156110f5576110f5610e31565b611109816111038454611031565b8461108c565b602080601f83116001811461113e57600084156111265750858301515b600019600386901b1c1916600185901b1785556110d2565b600085815260208120601f198616915b8281101561116d5788860151825594840194600190910190840161114e565b508582101561118b5787850151600019600388901b60f8161c191681555b5050505050600190811b01905550565b6040815260006111ae6040830185610d41565b90508260208301529392505050565b634e487b7160e01b600052603260045260246000fdfea2646970667358221220211f7f9c0339695250cb214b1318467c19819cb4f1ee62d4756eb63d1a42b6f864736f6c63430008140033",
  "linkReferences": {},
  "deployedLinkReferences": {}
}