{
  "_format": "hh-sol-artifact-1",
  "contractName": "TaskPlatform",
  "sourceName": "contracts/TaskPlatform.sol",
  "abi": [
    {
      "anonymous": false,
      "inputs": [
        {
          "indexed": false,
          "internalType": "uint256",
          "name": "taskId",
          "type": "uint256"
        },
        {
          "indexed": false,
          "internalType": "bool",
          "name": "creatorWon",
          "type": "bool"
        }
      ],
      "name": "DisputeResolved",
      "type": "event"
    },
    {
      "anonymous": false,
      "inputs": [
        {
          "indexed": false,
          "internalType": "uint256",
          "name": "taskId",
          "type": "uint256"
        },
        {
          "indexed": false,
          "internalType": "address",
          "name": "assignee",
          "type": "address"
        }
      ],
      "name": "TaskAssigned",
      "type": "event"
    },
    {
      "anonymous": false,
      "inputs": [
        {
          "indexed": false,
          "internalType": "uint256",
          "name": "taskId",
          "type": "uint256"
        }
      ],
      "name": "TaskCompleted",
      "type": "event"
    },
    {
      "anonymous": false,
      "inputs": [
        {
          "indexed": false,
          "internalType": "uint256",
          "name": "taskId",
          "type": "uint256"
        },
        {
          "indexed": false,
          "internalType": "string",
          "name": "title",
          "type": "string"
        },
        {
          "indexed": false,
          "internalType": "uint256",
          "name": "reward",
          "type": "uint256"
        }
      ],
      "name": "TaskCreated",
      "type": "event"
    },
    {
      "anonymous": false,
      "inputs": [
        {
          "indexed": false,
          "internalType": "uint256",
          "name": "taskId",
          "type": "uint256"
        }
      ],
      "name": "TaskDisputed",
      "type": "event"
    },
    {
      "anonymous": false,
      "inputs": [
        {
          "indexed": false,
          "internalType": "uint256",
          "name": "taskId",
          "type": "uint256"
        }
      ],
      "name": "TaskPaid",
      "type": "event"
    },
    {
      "anonymous": false,
      "inputs": [
        {
          "indexed": false,
          "internalType": "uint256",
          "name": "taskId",
          "type": "uint256"
        },
        {
          "indexed": false,
          "internalType": "uint256",
          "name": "rating",
          "type": "uint256"
        }
      ],
      "name": "TaskRated",
      "type": "event"
    },
    {
      "inputs": [
        {
          "internalType": "uint256",
          "name": "_taskId",
          "type": "uint256"
        }
      ],
      "name": "assignTask",
      "outputs": [],
      "stateMutability": "nonpayable",
      "type": "function"
    },
    {
      "inputs": [
        {
          "internalType": "string",
          "name": "",
          "type": "string"
        },
        {
          "internalType": "uint256",
          "name": "",
          "type": "uint256"
        }
      ],
      "name": "categoryTasks",
      "outputs": [
        {
          "internalType": "uint256",
          "name": "",
          "type": "uint256"
        }
      ],
      "stateMutability": "view",
      "type": "function"
    },
    {
      "inputs": [
        {
          "internalType": "uint256",
          "name": "_taskId",
          "type": "uint256"
        }
      ],
      "name": "completeTask",
      "outputs": [],
      "stateMutability": "nonpayable",
      "type": "function"
    },
    {
      "inputs": [
        {
          "internalType": "string",
          "name": "_title",
          "type": "string"
        },
        {
          "internalType": "string",
          "name": "_description",
          "type": "string"
        },
        {
          "internalType": "uint256",
          "name": "_reward",
          "type": "uint256"
        },
        {
          "internalType": "string",
          "name": "_category",
          "type": "string"
        },
        {
          "internalType": "string[]",
          "name": "_tags",
          "type": "string[]"
        }
      ],
      "name": "createTask",
      "outputs": [],
      "stateMutability": "nonpayable",
      "type": "function"
    },
    {
      "inputs": [
        {
          "internalType": "uint256",
          "name": "_taskId",
          "type": "uint256"
        }
      ],
      "name": "disputeTask",
      "outputs": [],
      "stateMutability": "nonpayable",
      "type": "function"
    },
    {
      "inputs": [
        {
          "internalType": "uint256",
          "name": "_taskId",
          "type": "uint256"
        }
      ],
      "name": "getTask",
      "outputs": [
        {
          "components": [
            {
              "internalType": "uint256",
              "name": "id",
              "type": "uint256"
            },
            {
              "internalType": "string",
              "name": "title",
              "type": "string"
            },
            {
              "internalType": "string",
              "name": "description",
              "type": "string"
            },
            {
              "internalType": "uint256",
              "name": "reward",
              "type": "uint256"
            },
            {
              "internalType": "address",
              "name": "creator",
              "type": "address"
            },
            {
              "internalType": "address",
              "name": "assignee",
              "type": "address"
            },
            {
              "internalType": "bool",
              "name": "completed",
              "type": "bool"
            },
            {
              "internalType": "bool",
              "name": "paid",
              "type": "bool"
            },
            {
              "internalType": "uint256",
              "name": "createdAt",
              "type": "uint256"
            },
            {
              "internalType": "string",
              "name": "category",
              "type": "string"
            },
            {
              "internalType": "string[]",
              "name": "tags",
              "type": "string[]"
            },
            {
              "internalType": "uint256",
              "name": "rating",
              "type": "uint256"
            },
            {
              "internalType": "bool",
              "name": "disputed",
              "type": "bool"
            }
          ],
          "internalType": "struct TaskPlatform.Task",
          "name": "",
          "type": "tuple"
        }
      ],
      "stateMutability": "view",
      "type": "function"
    },
    {
      "inputs": [],
      "name": "getTaskCount",
      "outputs": [
        {
          "internalType": "uint256",
          "name": "",
          "type": "uint256"
        }
      ],
      "stateMutability": "view",
      "type": "function"
    },
    {
      "inputs": [
        {
          "internalType": "string",
          "name": "_category",
          "type": "string"
        }
      ],
      "name": "getTasksByCategory",
      "outputs": [
        {
          "internalType": "uint256[]",
          "name": "",
          "type": "uint256[]"
        }
      ],
      "stateMutability": "view",
      "type": "function"
    },
    {
      "inputs": [
        {
          "internalType": "address",
          "name": "_user",
          "type": "address"
        }
      ],
      "name": "getUserStats",
      "outputs": [
        {
          "components": [
            {
              "internalType": "uint256",
              "name": "tasksCompleted",
              "type": "uint256"
            },
            {
              "internalType": "uint256",
              "name": "totalEarnings",
              "type": "uint256"
            },
            {
              "internalType": "uint256",
              "name": "tasksCreated",
              "type": "uint256"
            },
            {
              "internalType": "uint256",
              "name": "averageRating",
              "type": "uint256"
            },
            {
              "internalType": "uint256",
              "name": "totalRatings",
              "type": "uint256"
            }
          ],
          "internalType": "struct TaskPlatform.UserStats",
          "name": "",
          "type": "tuple"
        }
      ],
      "stateMutability": "view",
      "type": "function"
    },
    {
      "inputs": [
        {
          "internalType": "address",
          "name": "_user",
          "type": "address"
        }
      ],
      "name": "getUserTasks",
      "outputs": [
        {
          "internalType": "uint256[]",
          "name": "",
          "type": "uint256[]"
        }
      ],
      "stateMutability": "view",
      "type": "function"
    },
    {
      "inputs": [
        {
          "internalType": "uint256",
          "name": "_taskId",
          "type": "uint256"
        }
      ],
      "name": "payTask",
      "outputs": [],
      "stateMutability": "payable",
      "type": "function"
    },
    {
      "inputs": [
        {
          "internalType": "uint256",
          "name": "_taskId",
          "type": "uint256"
        },
        {
          "internalType": "uint256",
          "name": "_rating",
          "type": "uint256"
        }
      ],
      "name": "rateTask",
      "outputs": [],
      "stateMutability": "nonpayable",
      "type": "function"
    },
    {
      "inputs": [
        {
          "internalType": "uint256",
          "name": "_taskId",
          "type": "uint256"
        },
        {
          "internalType": "bool",
          "name": "_creatorWon",
          "type": "bool"
        }
      ],
      "name": "resolveDispute",
      "outputs": [],
      "stateMutability": "nonpayable",
      "type": "function"
    },
    {
      "inputs": [
        {
          "internalType": "uint256",
          "name": "",
          "type": "uint256"
        }
      ],
      "name": "tasks",
      "outputs": [
        {
          "internalType": "uint256",
          "name": "id",
          "type": "uint256"
        },
        {
          "internalType": "string",
          "name": "title",
          "type": "string"
        },
        {
          "internalType": "string",
          "name": "description",
          "type": "string"
        },
        {
          "internalType": "uint256",
          "name": "reward",
          "type": "uint256"
        },
        {
          "internalType": "address",
          "name": "creator",
          "type": "address"
        },
        {
          "internalType": "address",
          "name": "assignee",
          "type": "address"
        },
        {
          "internalType": "bool",
          "name": "completed",
          "type": "bool"
        },
        {
          "internalType": "bool",
          "name": "paid",
          "type": "bool"
        },
        {
          "internalType": "uint256",
          "name": "createdAt",
          "type": "uint256"
        },
        {
          "internalType": "string",
          "name": "category",
          "type": "string"
        },
        {
          "internalType": "uint256",
          "name": "rating",
          "type": "uint256"
        },
        {
          "internalType": "bool",
          "name": "disputed",
          "type": "bool"
        }
      ],
      "stateMutability": "view",
      "type": "function"
    },
    {
      "inputs": [
        {
          "internalType": "address",
          "name": "",
          "type": "address"
        }
      ],
      "name": "userStats",
      "outputs": [
        {
          "internalType": "uint256",
          "name": "tasksCompleted",
          "type": "uint256"
        },
        {
          "internalType": "uint256",
          "name": "totalEarnings",
          "type": "uint256"
        },
        {
          "internalType": "uint256",
          "name": "tasksCreated",
          "type": "uint256"
        },
        {
          "internalType": "uint256",
          "name": "averageRating",
          "type": "uint256"
        },
        {
          "internalType": "uint256",
          "name": "totalRatings",
          "type": "uint256"
        }
      ],
      "stateMutability": "view",
      "type": "function"
    },
    {
      "inputs": [
        {
          "internalType": "address",
          "name": "",
          "type": "address"
        },
        {
          "internalType": "uint256",
          "name": "",
          "type": "uint256"
        }
      ],
      "name": "userTasks",
      "outputs": [
        {
          "internalType": "uint256",
          "name": "",
          "type": "uint256"
        }
      ],
      "stateMutability": "view",
      "type": "function"
    }
  ],
  "bytecode": "0x608060405234801561001057600080fd5b50613aba806100206000396000f3fe6080604052600436106100f35760003560e01c806395d576601161008a578063c17a340e11610059578063c17a340e14610372578063ca290aad1461039d578063e1e29558146103c6578063e3e1ed3e146103ef576100f3565b806395d57660146102a657806397d9c23e146102e357806399f7cf581461030c578063b857318514610349576100f3565b806357556fff116100c657806357556fff146101b757806366873a55146101e05780638a65d8741461021d5780638d9776721461025e576100f3565b80631d65e77e146100f85780632508402c1461013557806334b25ee2146101515780634e43603a1461017a575b600080fd5b34801561010457600080fd5b5061011f600480360381019061011a919061236d565b61042c565b60405161012c9190612685565b60405180910390f35b61014f600480360381019061014a919061236d565b61080e565b005b34801561015d57600080fd5b50610178600480360381019061017391906126d3565b610bd8565b005b34801561018657600080fd5b506101a1600480360381019061019c919061273f565b611081565b6040516101ae91906127d4565b60405180910390f35b3480156101c357600080fd5b506101de60048036038101906101d991906127ef565b61110c565b005b3480156101ec57600080fd5b506102076004803603810190610202919061282f565b611392565b604051610214919061287e565b60405180910390f35b34801561022957600080fd5b50610244600480360381019061023f919061273f565b6113c3565b604051610255959493929190612899565b60405180910390f35b34801561026a57600080fd5b506102856004803603810190610280919061236d565b6113f9565b60405161029d9c9b9a99989796959493929190612954565b60405180910390f35b3480156102b257600080fd5b506102cd60048036038101906102c8919061273f565b611658565b6040516102da9190612ad2565b60405180910390f35b3480156102ef57600080fd5b5061030a6004803603810190610305919061236d565b6116ef565b005b34801561031857600080fd5b50610333600480360381019061032e9190612c29565b61192e565b604051610340919061287e565b60405180910390f35b34801561035557600080fd5b50610370600480360381019061036b919061236d565b611975565b005b34801561037e57600080fd5b50610387611bb5565b604051610394919061287e565b60405180910390f35b3480156103a957600080fd5b506103c460048036038101906103bf9190612d6b565b611bbe565b005b3480156103d257600080fd5b506103ed60048036038101906103e8919061236d565b611f42565b005b3480156103fb57600080fd5b5061041660048036038101906104119190612e56565b61210a565b6040516104239190612ad2565b60405180910390f35b610434612180565b60016000838152602001908152602001600020604051806101a00160405290816000820154815260200160018201805461046d90612ece565b80601f016020809104026020016040519081016040528092919081815260200182805461049990612ece565b80156104e65780601f106104bb576101008083540402835291602001916104e6565b820191906000526020600020905b8154815290600101906020018083116104c957829003601f168201915b505050505081526020016002820180546104ff90612ece565b80601f016020809104026020016040519081016040528092919081815260200182805461052b90612ece565b80156105785780601f1061054d57610100808354040283529160200191610578565b820191906000526020600020905b81548152906001019060200180831161055b57829003601f168201915b50505050508152602001600382015481526020016004820160009054906101000a900473ffffffffffffffffffffffffffffffffffffffff1673ffffffffffffffffffffffffffffffffffffffff1673ffffffffffffffffffffffffffffffffffffffff1681526020016005820160009054906101000a900473ffffffffffffffffffffffffffffffffffffffff1673ffffffffffffffffffffffffffffffffffffffff1673ffffffffffffffffffffffffffffffffffffffff1681526020016005820160149054906101000a900460ff161515151581526020016005820160159054906101000a900460ff161515151581526020016006820154815260200160078201805461068790612ece565b80601f01602080910402602001604051908101604052809291908181526020018280546106b390612ece565b80156107005780601f106106d557610100808354040283529160200191610700565b820191906000526020600020905b8154815290600101906020018083116106e357829003601f168201915b5050505050815260200160088201805480602002602001604051908101604052809291908181526020016000905b828210156107da57838290600052602060002001805461074d90612ece565b80601f016020809104026020016040519081016040528092919081815260200182805461077990612ece565b80156107c65780601f1061079b576101008083540402835291602001916107c6565b820191906000526020600020905b8154815290600101906020018083116107a957829003601f168201915b50505050508152602001906001019061072e565b50505050815260200160098201548152602001600a820160009054906101000a900460ff1615151515815250509050919050565b3373ffffffffffffffffffffffffffffffffffffffff166001600083815260200190815260200160002060040160009054906101000a900473ffffffffffffffffffffffffffffffffffffffff1673ffffffffffffffffffffffffffffffffffffffff16146108b2576040517f08c379a00000000000000000000000000000000000000000000000000000000081526004016108a990612f4b565b60405180910390fd5b6001600082815260200190815260200160002060050160149054906101000a900460ff16610915576040517f08c379a000000000000000000000000000000000000000000000000000000000815260040161090c90612fb7565b60405180910390fd5b6001600082815260200190815260200160002060050160159054906101000a900460ff1615610979576040517f08c379a000000000000000000000000000000000000000000000000000000000815260040161097090613023565b60405180910390fd5b60016000828152602001908152602001600020600301543410156109d2576040517f08c379a00000000000000000000000000000000000000000000000000000000081526004016109c99061308f565b60405180910390fd5b600180600083815260200190815260200160002060050160156101000a81548160ff0219169083151502179055506001600082815260200190815260200160002060030154600260006001600085815260200190815260200160002060050160009054906101000a900473ffffffffffffffffffffffffffffffffffffffff1673ffffffffffffffffffffffffffffffffffffffff1673ffffffffffffffffffffffffffffffffffffffff1681526020019081526020016000206001016000828254610a9e91906130de565b9250508190555060006001600083815260200190815260200160002060050160009054906101000a900473ffffffffffffffffffffffffffffffffffffffff1673ffffffffffffffffffffffffffffffffffffffff166001600084815260200190815260200160002060030154604051610b1790613143565b60006040518083038185875af1925050503d8060008114610b54576040519150601f19603f3d011682016040523d82523d6000602084013e610b59565b606091505b5050905080610b9d576040517f08c379a0000000000000000000000000000000000000000000000000000000008152600401610b94906131a4565b60405180910390fd5b7f357f3eae572babfa078658d7f9f741ecb1332b43f73f4fac3a67846cfd8355d482604051610bcc919061287e565b60405180910390a15050565b60016000838152602001908152602001600020600a0160009054906101000a900460ff16610c3b576040517f08c379a0000000000000000000000000000000000000000000000000000000008152600401610c3290613210565b60405180910390fd5b6001600083815260200190815260200160002060050160159054906101000a900460ff1615610c9f576040517f08c379a0000000000000000000000000000000000000000000000000000000008152600401610c9690613023565b60405180910390fd5b8015610e48576001600083815260200190815260200160002060030154600260006001600086815260200190815260200160002060040160009054906101000a900473ffffffffffffffffffffffffffffffffffffffff1673ffffffffffffffffffffffffffffffffffffffff1673ffffffffffffffffffffffffffffffffffffffff1681526020019081526020016000206001016000828254610d4391906130de565b9250508190555060006001600084815260200190815260200160002060040160009054906101000a900473ffffffffffffffffffffffffffffffffffffffff1673ffffffffffffffffffffffffffffffffffffffff166001600085815260200190815260200160002060030154604051610dbc90613143565b60006040518083038185875af1925050503d8060008114610df9576040519150601f19603f3d011682016040523d82523d6000602084013e610dfe565b606091505b5050905080610e42576040517f08c379a0000000000000000000000000000000000000000000000000000000008152600401610e39906131a4565b60405180910390fd5b50610fe7565b6001600083815260200190815260200160002060030154600260006001600086815260200190815260200160002060050160009054906101000a900473ffffffffffffffffffffffffffffffffffffffff1673ffffffffffffffffffffffffffffffffffffffff1673ffffffffffffffffffffffffffffffffffffffff1681526020019081526020016000206001016000828254610ee691906130de565b9250508190555060006001600084815260200190815260200160002060050160009054906101000a900473ffffffffffffffffffffffffffffffffffffffff1673ffffffffffffffffffffffffffffffffffffffff166001600085815260200190815260200160002060030154604051610f5f90613143565b60006040518083038185875af1925050503d8060008114610f9c576040519150601f19603f3d011682016040523d82523d6000602084013e610fa1565b606091505b5050905080610fe5576040517f08c379a0000000000000000000000000000000000000000000000000000000008152600401610fdc906131a4565b60405180910390fd5b505b600180600084815260200190815260200160002060050160156101000a81548160ff021916908315150217905550600060016000848152602001908152602001600020600a0160006101000a81548160ff0219169083151502179055507f5a87909bff68caaaaf0b3fd9c74eeccc928832f879315e5c6fb7a73612f26c0c8282604051611075929190613230565b60405180910390a15050565b61108961221a565b600260008373ffffffffffffffffffffffffffffffffffffffff1673ffffffffffffffffffffffffffffffffffffffff1681526020019081526020016000206040518060a0016040529081600082015481526020016001820154815260200160028201548152602001600382015481526020016004820154815250509050919050565b3373ffffffffffffffffffffffffffffffffffffffff166001600084815260200190815260200160002060040160009054906101000a900473ffffffffffffffffffffffffffffffffffffffff1673ffffffffffffffffffffffffffffffffffffffff16146111b0576040517f08c379a00000000000000000000000000000000000000000000000000000000081526004016111a7906132a5565b60405180910390fd5b6001600083815260200190815260200160002060050160149054906101000a900460ff16611213576040517f08c379a000000000000000000000000000000000000000000000000000000000815260040161120a90612fb7565b60405180910390fd5b60018110158015611225575060058111155b611264576040517f08c379a000000000000000000000000000000000000000000000000000000000815260040161125b90613311565b60405180910390fd5b8060016000848152602001908152602001600020600901819055506000600260006001600086815260200190815260200160002060050160009054906101000a900473ffffffffffffffffffffffffffffffffffffffff1673ffffffffffffffffffffffffffffffffffffffff1673ffffffffffffffffffffffffffffffffffffffff168152602001908152602001600020905080600401600081548092919061130d90613331565b9190505550806004015482600183600401546113299190613379565b836003015461133891906133ad565b61134291906130de565b61134c919061341e565b81600301819055507f55e9b806225f02daa7409d6341000f95ede2bd9947c5be361e9a7eb493fce05d838360405161138592919061344f565b60405180910390a1505050565b600360205281600052604060002081815481106113ae57600080fd5b90600052602060002001600091509150505481565b60026020528060005260406000206000915090508060000154908060010154908060020154908060030154908060040154905085565b600160205280600052604060002060009150905080600001549080600101805461142290612ece565b80601f016020809104026020016040519081016040528092919081815260200182805461144e90612ece565b801561149b5780601f106114705761010080835404028352916020019161149b565b820191906000526020600020905b81548152906001019060200180831161147e57829003601f168201915b5050505050908060020180546114b090612ece565b80601f01602080910402602001604051908101604052809291908181526020018280546114dc90612ece565b80156115295780601f106114fe57610100808354040283529160200191611529565b820191906000526020600020905b81548152906001019060200180831161150c57829003601f168201915b5050505050908060030154908060040160009054906101000a900473ffffffffffffffffffffffffffffffffffffffff16908060050160009054906101000a900473ffffffffffffffffffffffffffffffffffffffff16908060050160149054906101000a900460ff16908060050160159054906101000a900460ff16908060060154908060070180546115bc90612ece565b80601f01602080910402602001604051908101604052809291908181526020018280546115e890612ece565b80156116355780601f1061160a57610100808354040283529160200191611635565b820191906000526020600020905b81548152906001019060200180831161161857829003601f168201915b50505050509080600901549080600a0160009054906101000a900460ff1690508c565b6060600360008373ffffffffffffffffffffffffffffffffffffffff1673ffffffffffffffffffffffffffffffffffffffff1681526020019081526020016000208054806020026020016040519081016040528092919081815260200182805480156116e357602002820191906000526020600020905b8154815260200190600101908083116116cf575b50505050509050919050565b6001600082815260200190815260200160002060050160149054906101000a900460ff16611752576040517f08c379a000000000000000000000000000000000000000000000000000000000815260040161174990612fb7565b60405180910390fd5b60016000828152602001908152602001600020600a0160009054906101000a900460ff16156117b6576040517f08c379a00000000000000000000000000000000000000000000000000000000081526004016117ad906134c4565b60405180910390fd5b6001600082815260200190815260200160002060040160009054906101000a900473ffffffffffffffffffffffffffffffffffffffff1673ffffffffffffffffffffffffffffffffffffffff163373ffffffffffffffffffffffffffffffffffffffff16148061188757506001600082815260200190815260200160002060050160009054906101000a900473ffffffffffffffffffffffffffffffffffffffff1673ffffffffffffffffffffffffffffffffffffffff163373ffffffffffffffffffffffffffffffffffffffff16145b6118c6576040517f08c379a00000000000000000000000000000000000000000000000000000000081526004016118bd90613556565b60405180910390fd5b6001806000838152602001908152602001600020600a0160006101000a81548160ff0219169083151502179055507fe374130ee21046a04f5d6be14c752d412f721aecf1e8a04109b0634279cac0a681604051611923919061287e565b60405180910390a150565b600482805160208101820180518482526020830160208501208183528095505050505050818154811061196057600080fd5b90600052602060002001600091509150505481565b600073ffffffffffffffffffffffffffffffffffffffff166001600083815260200190815260200160002060050160009054906101000a900473ffffffffffffffffffffffffffffffffffffffff1673ffffffffffffffffffffffffffffffffffffffff1614611a1a576040517f08c379a0000000000000000000000000000000000000000000000000000000008152600401611a11906135c2565b60405180910390fd5b3373ffffffffffffffffffffffffffffffffffffffff166001600083815260200190815260200160002060040160009054906101000a900473ffffffffffffffffffffffffffffffffffffffff1673ffffffffffffffffffffffffffffffffffffffff1603611abe576040517f08c379a0000000000000000000000000000000000000000000000000000000008152600401611ab590613654565b60405180910390fd5b336001600083815260200190815260200160002060050160006101000a81548173ffffffffffffffffffffffffffffffffffffffff021916908373ffffffffffffffffffffffffffffffffffffffff160217905550600360003373ffffffffffffffffffffffffffffffffffffffff1673ffffffffffffffffffffffffffffffffffffffff1681526020019081526020016000208190806001815401808255809150506001900390600052602060002001600090919091909150557f52476d55ecef5cf13caa64038f297fe6bbf865d9584a98b8722a15a6d5db128f8133604051611baa929190613674565b60405180910390a150565b60008054905090565b600080815480929190611bd090613331565b9190505550604051806101a0016040528060005481526020018681526020018581526020018481526020013373ffffffffffffffffffffffffffffffffffffffff168152602001600073ffffffffffffffffffffffffffffffffffffffff16815260200160001515815260200160001515815260200142815260200183815260200182815260200160008152602001600015158152506001600080548152602001908152602001600020600082015181600001556020820151816001019081611c999190613849565b506040820151816002019081611caf9190613849565b506060820151816003015560808201518160040160006101000a81548173ffffffffffffffffffffffffffffffffffffffff021916908373ffffffffffffffffffffffffffffffffffffffff16021790555060a08201518160050160006101000a81548173ffffffffffffffffffffffffffffffffffffffff021916908373ffffffffffffffffffffffffffffffffffffffff16021790555060c08201518160050160146101000a81548160ff02191690831515021790555060e08201518160050160156101000a81548160ff0219169083151502179055506101008201518160060155610120820151816007019081611da99190613849565b50610140820151816008019080519060200190611dc7929190612249565b50610160820151816009015561018082015181600a0160006101000a81548160ff021916908315150217905550905050600260003373ffffffffffffffffffffffffffffffffffffffff1673ffffffffffffffffffffffffffffffffffffffff1681526020019081526020016000206002016000815480929190611e4a90613331565b9190505550600360003373ffffffffffffffffffffffffffffffffffffffff1673ffffffffffffffffffffffffffffffffffffffff1681526020019081526020016000206000549080600181540180825580915050600190039060005260206000200160009091909190915055600482604051611ec79190613957565b908152602001604051809103902060005490806001815401808255809150506001900390600052602060002001600090919091909150557f146b4b2e55f6b6a4a8ac8239494150cd5f96b163e2d019440f369714f4a31eb86000548685604051611f339392919061396e565b60405180910390a15050505050565b3373ffffffffffffffffffffffffffffffffffffffff166001600083815260200190815260200160002060050160009054906101000a900473ffffffffffffffffffffffffffffffffffffffff1673ffffffffffffffffffffffffffffffffffffffff1614611fe6576040517f08c379a0000000000000000000000000000000000000000000000000000000008152600401611fdd906139f8565b60405180910390fd5b6001600082815260200190815260200160002060050160149054906101000a900460ff161561204a576040517f08c379a000000000000000000000000000000000000000000000000000000000815260040161204190613a64565b60405180910390fd5b600180600083815260200190815260200160002060050160146101000a81548160ff021916908315150217905550600260003373ffffffffffffffffffffffffffffffffffffffff1673ffffffffffffffffffffffffffffffffffffffff16815260200190815260200160002060000160008154809291906120cb90613331565b91905055507fc1fa7142cfb933d0855114a3bffde296944c30b727f297c14d0db4d553d3a5c7816040516120ff919061287e565b60405180910390a150565b606060048260405161211c9190613957565b908152602001604051809103902080548060200260200160405190810160405280929190818152602001828054801561217457602002820191906000526020600020905b815481526020019060010190808311612160575b50505050509050919050565b604051806101a0016040528060008152602001606081526020016060815260200160008152602001600073ffffffffffffffffffffffffffffffffffffffff168152602001600073ffffffffffffffffffffffffffffffffffffffff168152602001600015158152602001600015158152602001600081526020016060815260200160608152602001600081526020016000151581525090565b6040518060a0016040528060008152602001600081526020016000815260200160008152602001600081525090565b828054828255906000526020600020908101928215612291579160200282015b828111156122905782518290816122809190613849565b5091602001919060010190612269565b5b50905061229e91906122a2565b5090565b5b808211156122c257600081816122b991906122c6565b506001016122a3565b5090565b5080546122d290612ece565b6000825580601f106122e45750612303565b601f0160209004906000526020600020908101906123029190612306565b5b50565b5b8082111561231f576000816000905550600101612307565b5090565b6000604051905090565b600080fd5b600080fd5b6000819050919050565b61234a81612337565b811461235557600080fd5b50565b60008135905061236781612341565b92915050565b6000602082840312156123835761238261232d565b5b600061239184828501612358565b91505092915050565b6123a381612337565b82525050565b600081519050919050565b600082825260208201905092915050565b60005b838110156123e35780820151818401526020810190506123c8565b60008484015250505050565b6000601f19601f8301169050919050565b600061240b826123a9565b61241581856123b4565b93506124258185602086016123c5565b61242e816123ef565b840191505092915050565b600073ffffffffffffffffffffffffffffffffffffffff82169050919050565b600061246482612439565b9050919050565b61247481612459565b82525050565b60008115159050919050565b61248f8161247a565b82525050565b600081519050919050565b600082825260208201905092915050565b6000819050602082019050919050565b60006124cd8383612400565b905092915050565b6000602082019050919050565b60006124ed82612495565b6124f781856124a0565b935083602082028501612509856124b1565b8060005b85811015612545578484038952815161252685826124c1565b9450612531836124d5565b925060208a0199505060018101905061250d565b50829750879550505050505092915050565b60006101a083016000830151612570600086018261239a565b50602083015184820360208601526125888282612400565b915050604083015184820360408601526125a28282612400565b91505060608301516125b7606086018261239a565b5060808301516125ca608086018261246b565b5060a08301516125dd60a086018261246b565b5060c08301516125f060c0860182612486565b5060e083015161260360e0860182612486565b5061010083015161261861010086018261239a565b506101208301518482036101208601526126328282612400565b91505061014083015184820361014086015261264e82826124e2565b91505061016083015161266561016086018261239a565b5061018083015161267a610180860182612486565b508091505092915050565b6000602082019050818103600083015261269f8184612557565b905092915050565b6126b08161247a565b81146126bb57600080fd5b50565b6000813590506126cd816126a7565b92915050565b600080604083850312156126ea576126e961232d565b5b60006126f885828601612358565b9250506020612709858286016126be565b9150509250929050565b61271c81612459565b811461272757600080fd5b50565b60008135905061273981612713565b92915050565b6000602082840312156127555761275461232d565b5b60006127638482850161272a565b91505092915050565b60a082016000820151612782600085018261239a565b506020820151612795602085018261239a565b5060408201516127a8604085018261239a565b5060608201516127bb606085018261239a565b5060808201516127ce608085018261239a565b50505050565b600060a0820190506127e9600083018461276c565b92915050565b600080604083850312156128065761280561232d565b5b600061281485828601612358565b925050602061282585828601612358565b9150509250929050565b600080604083850312156128465761284561232d565b5b60006128548582860161272a565b925050602061286585828601612358565b9150509250929050565b61287881612337565b82525050565b6000602082019050612893600083018461286f565b92915050565b600060a0820190506128ae600083018861286f565b6128bb602083018761286f565b6128c8604083018661286f565b6128d5606083018561286f565b6128e2608083018461286f565b9695505050505050565b600082825260208201905092915050565b6000612908826123a9565b61291281856128ec565b93506129228185602086016123c5565b61292b816123ef565b840191505092915050565b61293f81612459565b82525050565b61294e8161247a565b82525050565b60006101808201905061296a600083018f61286f565b818103602083015261297c818e6128fd565b90508181036040830152612990818d6128fd565b905061299f606083018c61286f565b6129ac608083018b612936565b6129b960a083018a612936565b6129c660c0830189612945565b6129d360e0830188612945565b6129e161010083018761286f565b8181036101208301526129f481866128fd565b9050612a0461014083018561286f565b612a12610160830184612945565b9d9c50505050505050505050505050565b600081519050919050565b600082825260208201905092915050565b6000819050602082019050919050565b6000612a5b838361239a565b60208301905092915050565b6000602082019050919050565b6000612a7f82612a23565b612a898185612a2e565b9350612a9483612a3f565b8060005b83811015612ac5578151612aac8882612a4f565b9750612ab783612a67565b925050600181019050612a98565b5085935050505092915050565b60006020820190508181036000830152612aec8184612a74565b905092915050565b600080fd5b600080fd5b7f4e487b7100000000000000000000000000000000000000000000000000000000600052604160045260246000fd5b612b36826123ef565b810181811067ffffffffffffffff82111715612b5557612b54612afe565b5b80604052505050565b6000612b68612323565b9050612b748282612b2d565b919050565b600067ffffffffffffffff821115612b9457612b93612afe565b5b612b9d826123ef565b9050602081019050919050565b82818337600083830152505050565b6000612bcc612bc784612b79565b612b5e565b905082815260208101848484011115612be857612be7612af9565b5b612bf3848285612baa565b509392505050565b600082601f830112612c1057612c0f612af4565b5b8135612c20848260208601612bb9565b91505092915050565b60008060408385031215612c4057612c3f61232d565b5b600083013567ffffffffffffffff811115612c5e57612c5d612332565b5b612c6a85828601612bfb565b9250506020612c7b85828601612358565b9150509250929050565b600067ffffffffffffffff821115612ca057612c9f612afe565b5b602082029050602081019050919050565b600080fd5b6000612cc9612cc484612c85565b612b5e565b90508083825260208201905060208402830185811115612cec57612ceb612cb1565b5b835b81811015612d3357803567ffffffffffffffff811115612d1157612d10612af4565b5b808601612d1e8982612bfb565b85526020850194505050602081019050612cee565b5050509392505050565b600082601f830112612d5257612d51612af4565b5b8135612d62848260208601612cb6565b91505092915050565b600080600080600060a08688031215612d8757612d8661232d565b5b600086013567ffffffffffffffff811115612da557612da4612332565b5b612db188828901612bfb565b955050602086013567ffffffffffffffff811115612dd257612dd1612332565b5b612dde88828901612bfb565b9450506040612def88828901612358565b935050606086013567ffffffffffffffff811115612e1057612e0f612332565b5b612e1c88828901612bfb565b925050608086013567ffffffffffffffff811115612e3d57612e3c612332565b5b612e4988828901612d3d565b9150509295509295909350565b600060208284031215612e6c57612e6b61232d565b5b600082013567ffffffffffffffff811115612e8a57612e89612332565b5b612e9684828501612bfb565b91505092915050565b7f4e487b7100000000000000000000000000000000000000000000000000000000600052602260045260246000fd5b60006002820490506001821680612ee657607f821691505b602082108103612ef957612ef8612e9f565b5b50919050565b7f4f6e6c792063726561746f722063616e20706179000000000000000000000000600082015250565b6000612f356014836128ec565b9150612f4082612eff565b602082019050919050565b60006020820190508181036000830152612f6481612f28565b9050919050565b7f5461736b206e6f7420636f6d706c657465640000000000000000000000000000600082015250565b6000612fa16012836128ec565b9150612fac82612f6b565b602082019050919050565b60006020820190508181036000830152612fd081612f94565b9050919050565b7f5461736b20616c72656164792070616964000000000000000000000000000000600082015250565b600061300d6011836128ec565b915061301882612fd7565b602082019050919050565b6000602082019050818103600083015261303c81613000565b9050919050565b7f496e73756666696369656e74207061796d656e74000000000000000000000000600082015250565b60006130796014836128ec565b915061308482613043565b602082019050919050565b600060208201905081810360008301526130a88161306c565b9050919050565b7f4e487b7100000000000000000000000000000000000000000000000000000000600052601160045260246000fd5b60006130e982612337565b91506130f483612337565b925082820190508082111561310c5761310b6130af565b5b92915050565b600081905092915050565b50565b600061312d600083613112565b91506131388261311d565b600082019050919050565b600061314e82613120565b9150819050919050565b7f5472616e73666572206661696c65640000000000000000000000000000000000600082015250565b600061318e600f836128ec565b915061319982613158565b602082019050919050565b600060208201905081810360008301526131bd81613181565b9050919050565b7f5461736b206e6f74206469737075746564000000000000000000000000000000600082015250565b60006131fa6011836128ec565b9150613205826131c4565b602082019050919050565b60006020820190508181036000830152613229816131ed565b9050919050565b6000604082019050613245600083018561286f565b6132526020830184612945565b9392505050565b7f4f6e6c792063726561746f722063616e20726174650000000000000000000000600082015250565b600061328f6015836128ec565b915061329a82613259565b602082019050919050565b600060208201905081810360008301526132be81613282565b9050919050565b7f526174696e67206d757374206265206265747765656e203120616e6420350000600082015250565b60006132fb601e836128ec565b9150613306826132c5565b602082019050919050565b6000602082019050818103600083015261332a816132ee565b9050919050565b600061333c82612337565b91507fffffffffffffffffffffffffffffffffffffffffffffffffffffffffffffffff820361336e5761336d6130af565b5b600182019050919050565b600061338482612337565b915061338f83612337565b92508282039050818111156133a7576133a66130af565b5b92915050565b60006133b882612337565b91506133c383612337565b92508282026133d181612337565b915082820484148315176133e8576133e76130af565b5b5092915050565b7f4e487b7100000000000000000000000000000000000000000000000000000000600052601260045260246000fd5b600061342982612337565b915061343483612337565b925082613444576134436133ef565b5b828204905092915050565b6000604082019050613464600083018561286f565b613471602083018461286f565b9392505050565b7f5461736b20616c72656164792064697370757465640000000000000000000000600082015250565b60006134ae6015836128ec565b91506134b982613478565b602082019050919050565b600060208201905081810360008301526134dd816134a1565b9050919050565b7f4f6e6c792063726561746f72206f722061737369676e65652063616e2064697360008201527f7075746500000000000000000000000000000000000000000000000000000000602082015250565b60006135406024836128ec565b915061354b826134e4565b604082019050919050565b6000602082019050818103600083015261356f81613533565b9050919050565b7f5461736b20616c72656164792061737369676e65640000000000000000000000600082015250565b60006135ac6015836128ec565b91506135b782613576565b602082019050919050565b600060208201905081810360008301526135db8161359f565b9050919050565b7f43726561746f722063616e6e6f742061737369676e207461736b20746f20746860008201527f656d73656c766573000000000000000000000000000000000000000000000000602082015250565b600061363e6028836128ec565b9150613649826135e2565b604082019050919050565b6000602082019050818103600083015261366d81613631565b9050919050565b6000604082019050613689600083018561286f565b6136966020830184612936565b9392505050565b60008190508160005260206000209050919050565b60006020601f8301049050919050565b600082821b905092915050565b6000600883026136ff7fffffffffffffffffffffffffffffffffffffffffffffffffffffffffffffffff826136c2565b61370986836136c2565b95508019841693508086168417925050509392505050565b6000819050919050565b600061374661374161373c84612337565b613721565b612337565b9050919050565b6000819050919050565b6137608361372b565b61377461376c8261374d565b8484546136cf565b825550505050565b600090565b61378961377c565b613794818484613757565b505050565b5b818110156137b8576137ad600082613781565b60018101905061379a565b5050565b601f8211156137fd576137ce8161369d565b6137d7846136b2565b810160208510156137e6578190505b6137fa6137f2856136b2565b830182613799565b50505b505050565b600082821c905092915050565b600061382060001984600802613802565b1980831691505092915050565b6000613839838361380f565b9150826002028217905092915050565b613852826123a9565b67ffffffffffffffff81111561386b5761386a612afe565b5b6138758254612ece565b6138808282856137bc565b600060209050601f8311600181146138b357600084156138a1578287015190505b6138ab858261382d565b865550613913565b601f1984166138c18661369d565b60005b828110156138e9578489015182556001820191506020850194506020810190506138c4565b868310156139065784890151613902601f89168261380f565b8355505b6001600288020188555050505b505050505050565b600081905092915050565b6000613931826123a9565b61393b818561391b565b935061394b8185602086016123c5565b80840191505092915050565b60006139638284613926565b915081905092915050565b6000606082019050613983600083018661286f565b818103602083015261399581856128fd565b90506139a4604083018461286f565b949350505050565b7f4f6e6c792061737369676e65652063616e20636f6d706c657465207461736b00600082015250565b60006139e2601f836128ec565b91506139ed826139ac565b602082019050919050565b60006020820190508181036000830152613a11816139d5565b9050919050565b7f5461736b20616c726561647920636f6d706c6574656400000000000000000000600082015250565b6000613a4e6016836128ec565b9150613a5982613a18565b602082019050919050565b60006020820190508181036000830152613a7d81613a41565b905091905056fea26469706673582212208d109b7ad0b827973550ac89cbf5f308742d15f26e6d029ecd6b53858f1d5d9b64736f6c63430008180033",
  "linkReferences": {},
  "deployedLinkReferences": {}
}